{
	"contracts/MyTypes.sol": {
		"MyTypes": {
			"abi": [
				{
					"inputs": [],
					"name": "myBool",
					"outputs": [
						{
							"internalType": "bool",
							"name": "",
							"type": "bool"
						}
					],
					"stateMutability": "view",
					"type": "function"
				},
				{
					"inputs": [],
					"name": "myUint8",
					"outputs": [
						{
							"internalType": "uint8",
							"name": "",
							"type": "uint8"
						}
					],
					"stateMutability": "view",
					"type": "function"
				},
				{
					"inputs": [],
					"name": "previousContractAddress",
					"outputs": [
						{
							"internalType": "address",
							"name": "",
							"type": "address"
						}
					],
					"stateMutability": "view",
					"type": "function"
				}
			],
			"devdoc": {
				"author": "Mwangangi1978",
				"kind": "dev",
				"methods": {},
				"version": 1
			},
			"evm": {
				"assembly": "    /* \"contracts/MyTypes.sol\":138:461  contract MyTypes {... */\n  mstore(0x40, 0x80)\n    /* \"contracts/MyTypes.sol\":246:271  bool public myBool = true */\n  0x00\n  dup1\n  sload\n    /* \"contracts/MyTypes.sol\":280:306  uint8 public myUint8 = 255 */\n  0xff01\n  not(0xffff)\n  swap1\n  swap2\n  and\n  or\n  swap1\n  sstore\n  not(0x77d45c528d23a408376d)\n    /* \"contracts/MyTypes.sol\":267:271  true */\n  0x01\n    /* \"contracts/MyTypes.sol\":315:364  int256 private myInt8 = -565878973739898000389998 */\n  sstore\n    /* \"contracts/MyTypes.sol\":374:457  address public previousContractAddress = 0xf8e81D47203A594245E36C48e151709F0C19fBe8 */\n  0x02\n  dup1\n  sload\n  not(sub(shl(0xa0, 0x01), 0x01))\n  and\n    /* \"contracts/MyTypes.sol\":415:457  0xf8e81D47203A594245E36C48e151709F0C19fBe8 */\n  0xf8e81d47203a594245e36c48e151709f0c19fbe8\n    /* \"contracts/MyTypes.sol\":374:457  address public previousContractAddress = 0xf8e81D47203A594245E36C48e151709F0C19fBe8 */\n  or\n  swap1\n  sstore\n    /* \"contracts/MyTypes.sol\":138:461  contract MyTypes {... */\n  callvalue\n  dup1\n  iszero\n  tag_1\n  jumpi\n  0x00\n  dup1\n  revert\ntag_1:\n  pop\n  dataSize(sub_0)\n  dup1\n  dataOffset(sub_0)\n  0x00\n  codecopy\n  0x00\n  return\nstop\n\nsub_0: assembly {\n        /* \"contracts/MyTypes.sol\":138:461  contract MyTypes {... */\n      mstore(0x40, 0x80)\n      callvalue\n      dup1\n      iszero\n      tag_1\n      jumpi\n      0x00\n      dup1\n      revert\n    tag_1:\n      pop\n      jumpi(tag_2, lt(calldatasize, 0x04))\n      shr(0xe0, calldataload(0x00))\n      dup1\n      0x6deecdbe\n      eq\n      tag_3\n      jumpi\n      dup1\n      0x93fffddc\n      eq\n      tag_4\n      jumpi\n      dup1\n      0xe2a4b2af\n      eq\n      tag_5\n      jumpi\n    tag_2:\n      0x00\n      dup1\n      revert\n        /* \"contracts/MyTypes.sol\":246:271  bool public myBool = true */\n    tag_3:\n      sload(0x00)\n      tag_6\n      swap1\n      0xff\n      and\n      dup2\n      jump\n    tag_6:\n      mload(0x40)\n        /* \"#utility.yul\":179:193   */\n      swap1\n      iszero\n        /* \"#utility.yul\":172:194   */\n      iszero\n        /* \"#utility.yul\":154:195   */\n      dup2\n      mstore\n        /* \"#utility.yul\":142:144   */\n      0x20\n        /* \"#utility.yul\":127:145   */\n      add\n        /* \"contracts/MyTypes.sol\":246:271  bool public myBool = true */\n    tag_8:\n      mload(0x40)\n      dup1\n      swap2\n      sub\n      swap1\n      return\n        /* \"contracts/MyTypes.sol\":374:457  address public previousContractAddress = 0xf8e81D47203A594245E36C48e151709F0C19fBe8 */\n    tag_4:\n      sload(0x02)\n      tag_10\n      swap1\n      sub(shl(0xa0, 0x01), 0x01)\n      and\n      dup2\n      jump\n    tag_10:\n      mload(0x40)\n      sub(shl(0xa0, 0x01), 0x01)\n        /* \"#utility.yul\":370:402   */\n      swap1\n      swap2\n      and\n        /* \"#utility.yul\":352:403   */\n      dup2\n      mstore\n        /* \"#utility.yul\":340:342   */\n      0x20\n        /* \"#utility.yul\":325:343   */\n      add\n        /* \"contracts/MyTypes.sol\":374:457  address public previousContractAddress = 0xf8e81D47203A594245E36C48e151709F0C19fBe8 */\n      tag_8\n        /* \"#utility.yul\":206:409   */\n      jump\n        /* \"contracts/MyTypes.sol\":280:306  uint8 public myUint8 = 255 */\n    tag_5:\n      sload(0x00)\n      tag_14\n      swap1\n      0x0100\n      swap1\n      div\n      0xff\n      and\n      dup2\n      jump\n    tag_14:\n      mload(0x40)\n        /* \"#utility.yul\":586:590   */\n      0xff\n        /* \"#utility.yul\":574:591   */\n      swap1\n      swap2\n      and\n        /* \"#utility.yul\":556:592   */\n      dup2\n      mstore\n        /* \"#utility.yul\":544:546   */\n      0x20\n        /* \"#utility.yul\":529:547   */\n      add\n        /* \"contracts/MyTypes.sol\":280:306  uint8 public myUint8 = 255 */\n      tag_8\n        /* \"#utility.yul\":414:598   */\n      jump\n\n    auxdata: 0xa2646970667358221220892d7349092c453490c9b9c8644068cd558885bc46bf91e54819eaa6f70d474364736f6c63430008190033\n}\n",
				"bytecode": {
					"linkReferences": {},
					"object": "60806040525f805461ff0161ffff199091161790556977d45c528d23a408376d19600155600280546001600160a01b03191673f8e81d47203a594245e36c48e151709f0c19fbe81790553480156053575f80fd5b5060de806100605f395ff3fe6080604052348015600e575f80fd5b5060043610603a575f3560e01c80636deecdbe14603e57806393fffddc14605e578063e2a4b2af146087575b5f80fd5b5f5460499060ff1681565b60405190151581526020015b60405180910390f35b6002546070906001600160a01b031681565b6040516001600160a01b0390911681526020016055565b5f54609790610100900460ff1681565b60405160ff9091168152602001605556fea2646970667358221220892d7349092c453490c9b9c8644068cd558885bc46bf91e54819eaa6f70d474364736f6c63430008190033",
					"opcodes": "PUSH1 0x80 PUSH1 0x40 MSTORE PUSH0 DUP1 SLOAD PUSH2 0xFF01 PUSH2 0xFFFF NOT SWAP1 SWAP2 AND OR SWAP1 SSTORE PUSH10 0x77D45C528D23A408376D NOT PUSH1 0x1 SSTORE PUSH1 0x2 DUP1 SLOAD PUSH1 0x1 PUSH1 0x1 PUSH1 0xA0 SHL SUB NOT AND PUSH20 0xF8E81D47203A594245E36C48E151709F0C19FBE8 OR SWAP1 SSTORE CALLVALUE DUP1 ISZERO PUSH1 0x53 JUMPI PUSH0 DUP1 REVERT JUMPDEST POP PUSH1 0xDE DUP1 PUSH2 0x60 PUSH0 CODECOPY PUSH0 RETURN INVALID PUSH1 0x80 PUSH1 0x40 MSTORE CALLVALUE DUP1 ISZERO PUSH1 0xE JUMPI PUSH0 DUP1 REVERT JUMPDEST POP PUSH1 0x4 CALLDATASIZE LT PUSH1 0x3A JUMPI PUSH0 CALLDATALOAD PUSH1 0xE0 SHR DUP1 PUSH4 0x6DEECDBE EQ PUSH1 0x3E JUMPI DUP1 PUSH4 0x93FFFDDC EQ PUSH1 0x5E JUMPI DUP1 PUSH4 0xE2A4B2AF EQ PUSH1 0x87 JUMPI JUMPDEST PUSH0 DUP1 REVERT JUMPDEST PUSH0 SLOAD PUSH1 0x49 SWAP1 PUSH1 0xFF AND DUP2 JUMP JUMPDEST PUSH1 0x40 MLOAD SWAP1 ISZERO ISZERO DUP2 MSTORE PUSH1 0x20 ADD JUMPDEST PUSH1 0x40 MLOAD DUP1 SWAP2 SUB SWAP1 RETURN JUMPDEST PUSH1 0x2 SLOAD PUSH1 0x70 SWAP1 PUSH1 0x1 PUSH1 0x1 PUSH1 0xA0 SHL SUB AND DUP2 JUMP JUMPDEST PUSH1 0x40 MLOAD PUSH1 0x1 PUSH1 0x1 PUSH1 0xA0 SHL SUB SWAP1 SWAP2 AND DUP2 MSTORE PUSH1 0x20 ADD PUSH1 0x55 JUMP JUMPDEST PUSH0 SLOAD PUSH1 0x97 SWAP1 PUSH2 0x100 SWAP1 DIV PUSH1 0xFF AND DUP2 JUMP JUMPDEST PUSH1 0x40 MLOAD PUSH1 0xFF SWAP1 SWAP2 AND DUP2 MSTORE PUSH1 0x20 ADD PUSH1 0x55 JUMP INVALID LOG2 PUSH5 0x6970667358 0x22 SLT KECCAK256 DUP10 0x2D PUSH20 0x49092C453490C9B9C8644068CD558885BC46BF91 0xE5 BASEFEE NOT 0xEA 0xA6 0xF7 0xD SELFBALANCE NUMBER PUSH5 0x736F6C6343 STOP ADDMOD NOT STOP CALLER "
				},
				"gasEstimates": {
					"creation": {
						"codeDepositCost": "44400",
						"executionCost": "70665",
						"totalCost": "115065"
					},
					"external": {
						"myBool()": "2275",
						"myUint8()": "2344",
						"previousContractAddress()": "2336"
					}
				},
				"methodIdentifiers": {
					"myBool()": "6deecdbe",
					"myUint8()": "e2a4b2af",
					"previousContractAddress()": "93fffddc"
				}
			},
			"storageLayout": {
				"storage": [
					{
						"astId": 5,
						"contract": "contracts/MyTypes.sol:MyTypes",
						"label": "myBool",
						"offset": 0,
						"slot": "0",
						"type": "t_bool"
					},
					{
						"astId": 8,
						"contract": "contracts/MyTypes.sol:MyTypes",
						"label": "myUint8",
						"offset": 1,
						"slot": "0",
						"type": "t_uint8"
					},
					{
						"astId": 12,
						"contract": "contracts/MyTypes.sol:MyTypes",
						"label": "myInt8",
						"offset": 0,
						"slot": "1",
						"type": "t_int256"
					},
					{
						"astId": 15,
						"contract": "contracts/MyTypes.sol:MyTypes",
						"label": "previousContractAddress",
						"offset": 0,
						"slot": "2",
						"type": "t_address"
					}
				],
				"types": {
					"t_address": {
						"encoding": "inplace",
						"label": "address",
						"numberOfBytes": "20"
					},
					"t_bool": {
						"encoding": "inplace",
						"label": "bool",
						"numberOfBytes": "1"
					},
					"t_int256": {
						"encoding": "inplace",
						"label": "int256",
						"numberOfBytes": "32"
					},
					"t_uint8": {
						"encoding": "inplace",
						"label": "uint8",
						"numberOfBytes": "1"
					}
				}
			},
			"userdoc": {
				"kind": "user",
				"methods": {},
				"version": 1
			}
		}
	}
}